{
  "contractName": "Election",
  "abi": [
    {
      "inputs": [],
      "stateMutability": "nonpayable",
      "type": "constructor"
    },
    {
      "inputs": [
        {
          "internalType": "uint256",
          "name": "",
          "type": "uint256"
        }
      ],
      "name": "candidates",
      "outputs": [
        {
          "internalType": "uint256",
          "name": "id",
          "type": "uint256"
        },
        {
          "internalType": "string",
          "name": "name",
          "type": "string"
        },
        {
          "internalType": "uint256",
          "name": "voteCount",
          "type": "uint256"
        }
      ],
      "stateMutability": "view",
      "type": "function",
      "constant": true
    },
    {
      "inputs": [],
      "name": "candidatesCount",
      "outputs": [
        {
          "internalType": "uint256",
          "name": "",
          "type": "uint256"
        }
      ],
      "stateMutability": "view",
      "type": "function",
      "constant": true
    },
    {
      "inputs": [
        {
          "internalType": "address",
          "name": "",
          "type": "address"
        }
      ],
      "name": "voters",
      "outputs": [
        {
          "internalType": "bool",
          "name": "",
          "type": "bool"
        }
      ],
      "stateMutability": "view",
      "type": "function",
      "constant": true
    },
    {
      "inputs": [
        {
          "internalType": "uint256",
          "name": "_candidateId",
          "type": "uint256"
        }
      ],
      "name": "vote",
      "outputs": [],
      "stateMutability": "nonpayable",
      "type": "function"
    },
    {
      "inputs": [
        {
          "internalType": "string",
          "name": "_name",
          "type": "string"
        }
      ],
      "name": "addCandidate",
      "outputs": [],
      "stateMutability": "nonpayable",
      "type": "function"
    }
  ],
  "bytecode": "0x608060405234801561001057600080fd5b50336000806101000a81548173ffffffffffffffffffffffffffffffffffffffff021916908373ffffffffffffffffffffffffffffffffffffffff160217905550610a38806100606000396000f3fe608060405234801561001057600080fd5b50600436106100575760003560e01c80630121b93f1461005c5780632d35a8a2146100785780633477ee2e14610096578063462e91ec146100c8578063a3ec138d146100e4575b600080fd5b610076600480360381019061007191906103dd565b610114565b005b61008061020e565b60405161008d9190610419565b60405180910390f35b6100b060048036038101906100ab91906103dd565b610214565b6040516100bf939291906104c4565b60405180910390f35b6100e260048036038101906100dd9190610567565b6102c6565b005b6100fe60048036038101906100f99190610612565b61037d565b60405161010b919061065a565b60405180910390f35b600160003373ffffffffffffffffffffffffffffffffffffffff1673ffffffffffffffffffffffffffffffffffffffff16815260200190815260200160002060009054906101000a900460ff161561016b57600080fd5b8060008111801561017e57506003548111155b61018757600080fd5b60018060003373ffffffffffffffffffffffffffffffffffffffff1673ffffffffffffffffffffffffffffffffffffffff16815260200190815260200160002060006101000a81548160ff021916908315150217905550600260008381526020019081526020016000206002016000815480929190610205906106a4565b91905055505050565b60035481565b600260205280600052604060002060009150905080600001549080600101805461023d9061071b565b80601f01602080910402602001604051908101604052809291908181526020018280546102699061071b565b80156102b65780601f1061028b576101008083540402835291602001916102b6565b820191906000526020600020905b81548152906001019060200180831161029957829003601f168201915b5050505050908060020154905083565b3373ffffffffffffffffffffffffffffffffffffffff1660008054906101000a900473ffffffffffffffffffffffffffffffffffffffff1673ffffffffffffffffffffffffffffffffffffffff161461031e57600080fd5b60036000815480929190610331906106a4565b9190505550600060026000600354815260200190815260200160002090506003548160000181905550828282600101918261036d929190610932565b5060008160020181905550505050565b60016020528060005260406000206000915054906101000a900460ff1681565b600080fd5b600080fd5b6000819050919050565b6103ba816103a7565b81146103c557600080fd5b50565b6000813590506103d7816103b1565b92915050565b6000602082840312156103f3576103f261039d565b5b6000610401848285016103c8565b91505092915050565b610413816103a7565b82525050565b600060208201905061042e600083018461040a565b92915050565b600081519050919050565b600082825260208201905092915050565b60005b8381101561046e578082015181840152602081019050610453565b60008484015250505050565b6000601f19601f8301169050919050565b600061049682610434565b6104a0818561043f565b93506104b0818560208601610450565b6104b98161047a565b840191505092915050565b60006060820190506104d9600083018661040a565b81810360208301526104eb818561048b565b90506104fa604083018461040a565b949350505050565b600080fd5b600080fd5b600080fd5b60008083601f84011261052757610526610502565b5b8235905067ffffffffffffffff81111561054457610543610507565b5b6020830191508360018202830111156105605761055f61050c565b5b9250929050565b6000806020838503121561057e5761057d61039d565b5b600083013567ffffffffffffffff81111561059c5761059b6103a2565b5b6105a885828601610511565b92509250509250929050565b600073ffffffffffffffffffffffffffffffffffffffff82169050919050565b60006105df826105b4565b9050919050565b6105ef816105d4565b81146105fa57600080fd5b50565b60008135905061060c816105e6565b92915050565b6000602082840312156106285761062761039d565b5b6000610636848285016105fd565b91505092915050565b60008115159050919050565b6106548161063f565b82525050565b600060208201905061066f600083018461064b565b92915050565b7f4e487b7100000000000000000000000000000000000000000000000000000000600052601160045260246000fd5b60006106af826103a7565b91507fffffffffffffffffffffffffffffffffffffffffffffffffffffffffffffffff82036106e1576106e0610675565b5b600182019050919050565b7f4e487b7100000000000000000000000000000000000000000000000000000000600052602260045260246000fd5b6000600282049050600182168061073357607f821691505b602082108103610746576107456106ec565b5b50919050565b600082905092915050565b7f4e487b7100000000000000000000000000000000000000000000000000000000600052604160045260246000fd5b60008190508160005260206000209050919050565b60006020601f8301049050919050565b600082821b905092915050565b6000600883026107e87fffffffffffffffffffffffffffffffffffffffffffffffffffffffffffffffff826107ab565b6107f286836107ab565b95508019841693508086168417925050509392505050565b6000819050919050565b600061082f61082a610825846103a7565b61080a565b6103a7565b9050919050565b6000819050919050565b61084983610814565b61085d61085582610836565b8484546107b8565b825550505050565b600090565b610872610865565b61087d818484610840565b505050565b5b818110156108a15761089660008261086a565b600181019050610883565b5050565b601f8211156108e6576108b781610786565b6108c08461079b565b810160208510156108cf578190505b6108e36108db8561079b565b830182610882565b50505b505050565b600082821c905092915050565b6000610909600019846008026108eb565b1980831691505092915050565b600061092283836108f8565b9150826002028217905092915050565b61093c838361074c565b67ffffffffffffffff81111561095557610954610757565b5b61095f825461071b565b61096a8282856108a5565b6000601f8311600181146109995760008415610987578287013590505b6109918582610916565b8655506109f9565b601f1984166109a786610786565b60005b828110156109cf578489013582556001820191506020850194506020810190506109aa565b868310156109ec57848901356109e8601f8916826108f8565b8355505b6001600288020188555050505b5050505050505056fea2646970667358221220d02d2209e8fb493ca2535abeae9eea327c5a6b7aa9303fc44c11b0238f60a19a64736f6c63430008110033",
  "immutableReferences": {},
  "source": "//SPDX-License-Identifier: UNLICENSED\n\npragma solidity 0.8.17;\n\ncontract Election {\n\n    // Read/write candidate\n    struct Candidate {\n        uint id;\n        string name;\n        uint voteCount;\n    }\n\n    address owner;\n\n    mapping(address => bool) public voters;\n    mapping(uint => Candidate) public candidates;\n    uint public candidatesCount;\n\n    // Constructor\n    constructor () {\n        owner = msg.sender;\n    }\n\n    modifier only_unvoted() {\n        require(!voters[msg.sender]);\n        _;\n    }\n\n    modifier only_candidates(uint _candidateId) {\n        require(_candidateId > 0 && _candidateId <= candidatesCount);\n        _;\n    }\n\n    function vote (uint _candidateId) external only_unvoted() only_candidates(_candidateId) {\n        // record that voter has voted\n        voters[msg.sender] = true;\n\n        // update candidate vote Count\n        candidates[_candidateId].voteCount ++;\n    }\n\n    modifier only_owners() {\n        require(owner == msg.sender);\n        _;\n    }\n\n    function addCandidate (string calldata _name) public only_owners() {\n        candidatesCount++;\n        Candidate storage c = candidates[candidatesCount];\n        c.id = candidatesCount;\n        c.name = _name;\n        c.voteCount = 0;\n    }\n}",
  "sourcePath": "/home/martino/WebstormProjects/espl-web3js/contracts/Election.sol",
  "compiler": {
    "name": "solc",
    "version": "0.8.17+commit.8df45f5f.Emscripten.clang"
  },
  "schemaVersion": "3.4.13",
  "updatedAt": "2023-05-22T14:53:52.604Z",
  "networkType": "ethereum",
  "devdoc": {
    "kind": "dev",
    "methods": {},
    "version": 1
  },
  "userdoc": {
    "kind": "user",
    "methods": {},
    "version": 1
  }
}