{
  "contractName": "Quiz",
  "abi": [
    {
      "anonymous": false,
      "inputs": [
        {
          "indexed": false,
          "internalType": "uint256",
          "name": "questionId",
          "type": "uint256"
        },
        {
          "indexed": false,
          "internalType": "address",
          "name": "participant",
          "type": "address"
        }
      ],
      "name": "AnswerSubmitted",
      "type": "event"
    },
    {
      "anonymous": false,
      "inputs": [
        {
          "indexed": false,
          "internalType": "uint256",
          "name": "questionId",
          "type": "uint256"
        },
        {
          "indexed": false,
          "internalType": "address",
          "name": "author",
          "type": "address"
        }
      ],
      "name": "QuestionSubmitted",
      "type": "event"
    },
    {
      "inputs": [
        {
          "internalType": "address",
          "name": "",
          "type": "address"
        },
        {
          "internalType": "uint256",
          "name": "",
          "type": "uint256"
        }
      ],
      "name": "answers",
      "outputs": [
        {
          "internalType": "string",
          "name": "",
          "type": "string"
        }
      ],
      "stateMutability": "view",
      "type": "function",
      "constant": true
    },
    {
      "inputs": [
        {
          "internalType": "uint256",
          "name": "",
          "type": "uint256"
        }
      ],
      "name": "questions",
      "outputs": [
        {
          "internalType": "string",
          "name": "text",
          "type": "string"
        },
        {
          "internalType": "string",
          "name": "encryptedCorrectAnswer",
          "type": "string"
        },
        {
          "internalType": "address",
          "name": "author",
          "type": "address"
        }
      ],
      "stateMutability": "view",
      "type": "function",
      "constant": true
    },
    {
      "inputs": [
        {
          "internalType": "string",
          "name": "_text",
          "type": "string"
        },
        {
          "internalType": "string[]",
          "name": "_options",
          "type": "string[]"
        },
        {
          "internalType": "string",
          "name": "_encryptedCorrectAnswer",
          "type": "string"
        }
      ],
      "name": "submitQuestion",
      "outputs": [],
      "stateMutability": "nonpayable",
      "type": "function"
    },
    {
      "inputs": [
        {
          "internalType": "uint256",
          "name": "_questionId",
          "type": "uint256"
        },
        {
          "internalType": "string",
          "name": "_encryptedSelectedOption",
          "type": "string"
        }
      ],
      "name": "submitAnswer",
      "outputs": [],
      "stateMutability": "nonpayable",
      "type": "function"
    },
    {
      "inputs": [],
      "name": "getQuestionCount",
      "outputs": [
        {
          "internalType": "uint256",
          "name": "count",
          "type": "uint256"
        }
      ],
      "stateMutability": "view",
      "type": "function",
      "constant": true
    },
    {
      "inputs": [
        {
          "internalType": "uint256",
          "name": "index",
          "type": "uint256"
        }
      ],
      "name": "getQuestionData",
      "outputs": [
        {
          "components": [
            {
              "internalType": "string",
              "name": "text",
              "type": "string"
            },
            {
              "internalType": "string[]",
              "name": "options",
              "type": "string[]"
            },
            {
              "internalType": "string",
              "name": "encryptedCorrectAnswer",
              "type": "string"
            },
            {
              "internalType": "address",
              "name": "author",
              "type": "address"
            }
          ],
          "internalType": "struct Quiz.Question",
          "name": "",
          "type": "tuple"
        }
      ],
      "stateMutability": "view",
      "type": "function",
      "constant": true
    },
    {
      "inputs": [
        {
          "internalType": "uint256",
          "name": "_questionId",
          "type": "uint256"
        },
        {
          "internalType": "address",
          "name": "_participant",
          "type": "address"
        }
      ],
      "name": "getEncryptedAnswer",
      "outputs": [
        {
          "internalType": "string",
          "name": "",
          "type": "string"
        },
        {
          "internalType": "string",
          "name": "",
          "type": "string"
        }
      ],
      "stateMutability": "view",
      "type": "function",
      "constant": true
    }
  ],
  "bytecode": "0x608060405234801561001057600080fd5b50611739806100206000396000f3fe608060405234801561001057600080fd5b506004361061007d5760003560e01c80639725ac8b1161005b5780639725ac8b14610101578063dd41cc2f14610131578063f357fe171461014f578063f74bfd421461016b5761007d565b806301fa3bec146100825780632c8d2c461461009e57806331b1b978146100cf575b600080fd5b61009c60048036038101906100979190610d06565b61019b565b005b6100b860048036038101906100b39190610dc0565b61027d565b6040516100c6929190610e7f565b60405180910390f35b6100e960048036038101906100e49190610eb6565b610464565b6040516100f893929190610ef2565b60405180910390f35b61011b60048036038101906101169190610f37565b6105ce565b6040516101289190610f77565b60405180910390f35b61013961067b565b6040516101469190610fa8565b60405180910390f35b610169600480360381019061016491906110a9565b610687565b005b61018560048036038101906101809190610eb6565b6107ca565b60405161019291906112dc565b60405180910390f35b60008054905082106101e2576040517f08c379a00000000000000000000000000000000000000000000000000000000081526004016101d99061134a565b60405180910390fd5b80600160003373ffffffffffffffffffffffffffffffffffffffff1673ffffffffffffffffffffffffffffffffffffffff1681526020019081526020016000206000848152602001908152602001600020908161023f9190611576565b507fa09057f0c06a6d685ffe7bac25f2feb4b842d5036ffd66e6d37bdf9f5ab9e17d8233604051610271929190611648565b60405180910390a15050565b60608060008054905084106102c7576040517f08c379a00000000000000000000000000000000000000000000000000000000081526004016102be9061134a565b60405180910390fd5b6000600160008573ffffffffffffffffffffffffffffffffffffffff1673ffffffffffffffffffffffffffffffffffffffff1681526020019081526020016000206000868152602001908152602001600020805461032490611399565b80601f016020809104026020016040519081016040528092919081815260200182805461035090611399565b801561039d5780601f106103725761010080835404028352916020019161039d565b820191906000526020600020905b81548152906001019060200180831161038057829003601f168201915b5050505050905060008086815481106103b9576103b8611671565b5b906000526020600020906004020160020180546103d590611399565b80601f016020809104026020016040519081016040528092919081815260200182805461040190611399565b801561044e5780601f106104235761010080835404028352916020019161044e565b820191906000526020600020905b81548152906001019060200180831161043157829003601f168201915b5050505050905080829350935050509250929050565b6000818154811061047457600080fd5b906000526020600020906004020160009150905080600001805461049790611399565b80601f01602080910402602001604051908101604052809291908181526020018280546104c390611399565b80156105105780601f106104e557610100808354040283529160200191610510565b820191906000526020600020905b8154815290600101906020018083116104f357829003601f168201915b50505050509080600201805461052590611399565b80601f016020809104026020016040519081016040528092919081815260200182805461055190611399565b801561059e5780601f106105735761010080835404028352916020019161059e565b820191906000526020600020905b81548152906001019060200180831161058157829003601f168201915b5050505050908060030160009054906101000a900473ffffffffffffffffffffffffffffffffffffffff16905083565b60016020528160005260406000206020528060005260406000206000915091505080546105fa90611399565b80601f016020809104026020016040519081016040528092919081815260200182805461062690611399565b80156106735780601f1061064857610100808354040283529160200191610673565b820191906000526020600020905b81548152906001019060200180831161065657829003601f168201915b505050505081565b60008080549050905090565b600060405180608001604052808581526020018481526020018381526020013373ffffffffffffffffffffffffffffffffffffffff16815250908060018154018082558091505060019003906000526020600020906004020160009091909190915060008201518160000190816106fe9190611576565b50602082015181600101908051906020019061071b929190610a5e565b5060408201518160020190816107319190611576565b5060608201518160030160006101000a81548173ffffffffffffffffffffffffffffffffffffffff021916908373ffffffffffffffffffffffffffffffffffffffff16021790555050507fe4e4a5db159e85b70061b7a8a51f9cd3a2935ebbdb501b5663b171c8b28dbd7960016000805490506107ae91906116cf565b336040516107bd929190611648565b60405180910390a1505050565b6107d2610ab7565b60008083815481106107e7576107e6611671565b5b906000526020600020906004020190508060405180608001604052908160008201805461081390611399565b80601f016020809104026020016040519081016040528092919081815260200182805461083f90611399565b801561088c5780601f106108615761010080835404028352916020019161088c565b820191906000526020600020905b81548152906001019060200180831161086f57829003601f168201915b5050505050815260200160018201805480602002602001604051908101604052809291908181526020016000905b828210156109665783829060005260206000200180546108d990611399565b80601f016020809104026020016040519081016040528092919081815260200182805461090590611399565b80156109525780601f1061092757610100808354040283529160200191610952565b820191906000526020600020905b81548152906001019060200180831161093557829003601f168201915b5050505050815260200190600101906108ba565b50505050815260200160028201805461097e90611399565b80601f01602080910402602001604051908101604052809291908181526020018280546109aa90611399565b80156109f75780601f106109cc576101008083540402835291602001916109f7565b820191906000526020600020905b8154815290600101906020018083116109da57829003601f168201915b505050505081526020016003820160009054906101000a900473ffffffffffffffffffffffffffffffffffffffff1673ffffffffffffffffffffffffffffffffffffffff1673ffffffffffffffffffffffffffffffffffffffff1681525050915050919050565b828054828255906000526020600020908101928215610aa6579160200282015b82811115610aa5578251829081610a959190611576565b5091602001919060010190610a7e565b5b509050610ab39190610af5565b5090565b6040518060800160405280606081526020016060815260200160608152602001600073ffffffffffffffffffffffffffffffffffffffff1681525090565b5b80821115610b155760008181610b0c9190610b19565b50600101610af6565b5090565b508054610b2590611399565b6000825580601f10610b375750610b56565b601f016020900490600052602060002090810190610b559190610b59565b5b50565b5b80821115610b72576000816000905550600101610b5a565b5090565b6000604051905090565b600080fd5b600080fd5b6000819050919050565b610b9d81610b8a565b8114610ba857600080fd5b50565b600081359050610bba81610b94565b92915050565b600080fd5b600080fd5b6000601f19601f8301169050919050565b7f4e487b7100000000000000000000000000000000000000000000000000000000600052604160045260246000fd5b610c1382610bca565b810181811067ffffffffffffffff82111715610c3257610c31610bdb565b5b80604052505050565b6000610c45610b76565b9050610c518282610c0a565b919050565b600067ffffffffffffffff821115610c7157610c70610bdb565b5b610c7a82610bca565b9050602081019050919050565b82818337600083830152505050565b6000610ca9610ca484610c56565b610c3b565b905082815260208101848484011115610cc557610cc4610bc5565b5b610cd0848285610c87565b509392505050565b600082601f830112610ced57610cec610bc0565b5b8135610cfd848260208601610c96565b91505092915050565b60008060408385031215610d1d57610d1c610b80565b5b6000610d2b85828601610bab565b925050602083013567ffffffffffffffff811115610d4c57610d4b610b85565b5b610d5885828601610cd8565b9150509250929050565b600073ffffffffffffffffffffffffffffffffffffffff82169050919050565b6000610d8d82610d62565b9050919050565b610d9d81610d82565b8114610da857600080fd5b50565b600081359050610dba81610d94565b92915050565b60008060408385031215610dd757610dd6610b80565b5b6000610de585828601610bab565b9250506020610df685828601610dab565b9150509250929050565b600081519050919050565b600082825260208201905092915050565b60005b83811015610e3a578082015181840152602081019050610e1f565b60008484015250505050565b6000610e5182610e00565b610e5b8185610e0b565b9350610e6b818560208601610e1c565b610e7481610bca565b840191505092915050565b60006040820190508181036000830152610e998185610e46565b90508181036020830152610ead8184610e46565b90509392505050565b600060208284031215610ecc57610ecb610b80565b5b6000610eda84828501610bab565b91505092915050565b610eec81610d82565b82525050565b60006060820190508181036000830152610f0c8186610e46565b90508181036020830152610f208185610e46565b9050610f2f6040830184610ee3565b949350505050565b60008060408385031215610f4e57610f4d610b80565b5b6000610f5c85828601610dab565b9250506020610f6d85828601610bab565b9150509250929050565b60006020820190508181036000830152610f918184610e46565b905092915050565b610fa281610b8a565b82525050565b6000602082019050610fbd6000830184610f99565b92915050565b600067ffffffffffffffff821115610fde57610fdd610bdb565b5b602082029050602081019050919050565b600080fd5b600061100761100284610fc3565b610c3b565b9050808382526020820190506020840283018581111561102a57611029610fef565b5b835b8181101561107157803567ffffffffffffffff81111561104f5761104e610bc0565b5b80860161105c8982610cd8565b8552602085019450505060208101905061102c565b5050509392505050565b600082601f8301126110905761108f610bc0565b5b81356110a0848260208601610ff4565b91505092915050565b6000806000606084860312156110c2576110c1610b80565b5b600084013567ffffffffffffffff8111156110e0576110df610b85565b5b6110ec86828701610cd8565b935050602084013567ffffffffffffffff81111561110d5761110c610b85565b5b6111198682870161107b565b925050604084013567ffffffffffffffff81111561113a57611139610b85565b5b61114686828701610cd8565b9150509250925092565b600082825260208201905092915050565b600061116c82610e00565b6111768185611150565b9350611186818560208601610e1c565b61118f81610bca565b840191505092915050565b600081519050919050565b600082825260208201905092915050565b6000819050602082019050919050565b60006111d28383611161565b905092915050565b6000602082019050919050565b60006111f28261119a565b6111fc81856111a5565b93508360208202850161120e856111b6565b8060005b8581101561124a578484038952815161122b85826111c6565b9450611236836111da565b925060208a01995050600181019050611212565b50829750879550505050505092915050565b61126581610d82565b82525050565b600060808301600083015184820360008601526112888282611161565b915050602083015184820360208601526112a282826111e7565b915050604083015184820360408601526112bc8282611161565b91505060608301516112d1606086018261125c565b508091505092915050565b600060208201905081810360008301526112f6818461126b565b905092915050565b7f496e76616c6964207175657374696f6e20494400000000000000000000000000600082015250565b6000611334601383610e0b565b915061133f826112fe565b602082019050919050565b6000602082019050818103600083015261136381611327565b9050919050565b7f4e487b7100000000000000000000000000000000000000000000000000000000600052602260045260246000fd5b600060028204905060018216806113b157607f821691505b6020821081036113c4576113c361136a565b5b50919050565b60008190508160005260206000209050919050565b60006020601f8301049050919050565b600082821b905092915050565b60006008830261142c7fffffffffffffffffffffffffffffffffffffffffffffffffffffffffffffffff826113ef565b61143686836113ef565b95508019841693508086168417925050509392505050565b6000819050919050565b600061147361146e61146984610b8a565b61144e565b610b8a565b9050919050565b6000819050919050565b61148d83611458565b6114a16114998261147a565b8484546113fc565b825550505050565b600090565b6114b66114a9565b6114c1818484611484565b505050565b5b818110156114e5576114da6000826114ae565b6001810190506114c7565b5050565b601f82111561152a576114fb816113ca565b611504846113df565b81016020851015611513578190505b61152761151f856113df565b8301826114c6565b50505b505050565b600082821c905092915050565b600061154d6000198460080261152f565b1980831691505092915050565b6000611566838361153c565b9150826002028217905092915050565b61157f82610e00565b67ffffffffffffffff81111561159857611597610bdb565b5b6115a28254611399565b6115ad8282856114e9565b600060209050601f8311600181146115e057600084156115ce578287015190505b6115d8858261155a565b865550611640565b601f1984166115ee866113ca565b60005b82811015611616578489015182556001820191506020850194506020810190506115f1565b86831015611633578489015161162f601f89168261153c565b8355505b6001600288020188555050505b505050505050565b600060408201905061165d6000830185610f99565b61166a6020830184610ee3565b9392505050565b7f4e487b7100000000000000000000000000000000000000000000000000000000600052603260045260246000fd5b7f4e487b7100000000000000000000000000000000000000000000000000000000600052601160045260246000fd5b60006116da82610b8a565b91506116e583610b8a565b92508282039050818111156116fd576116fc6116a0565b5b9291505056fea26469706673582212202ba9156f5978ed2d06413a7ab13e5d0f3be26811efdab81bdd3566146891812c64736f6c63430008110033",
  "immutableReferences": {},
  "source": "// SPDX-License-Identifier: MIT\npragma solidity >=0.8.4 <0.9.0;\n\ncontract Quiz {\n    struct Question {\n        string text;\n        string[] options;\n        string encryptedCorrectAnswer;\n        address author;\n    }\n\n    Question[] public questions;\n    mapping(address => mapping(uint => string)) public answers;\n\n    event QuestionSubmitted(uint questionId, address author);\n    event AnswerSubmitted(uint questionId, address participant);\n\n    function submitQuestion(string memory _text, string[] memory _options, string memory _encryptedCorrectAnswer) public {\n        questions.push(Question({\n            text: _text,\n            options: _options,\n            encryptedCorrectAnswer: _encryptedCorrectAnswer,\n            author: msg.sender\n        }));\n        emit QuestionSubmitted(questions.length - 1, msg.sender);\n    }\n\n    function submitAnswer(uint _questionId, string memory _encryptedSelectedOption) public {\n        require(_questionId < questions.length, \"Invalid question ID\");\n        answers[msg.sender][_questionId] = _encryptedSelectedOption;\n        emit AnswerSubmitted(_questionId, msg.sender);\n    }\n\n    // Returning the number of questions\n    function getQuestionCount() external view returns(uint count) {\n        return questions.length;\n    }\n\n    // Returning the complete structure of a question\n    function getQuestionData(uint index) external view returns (Question memory)\n    {\n        Question storage data_package = questions[index];\n        return data_package;\n    }\n\n    // This function should ideally be off-chain since it requires decryption\n    // Just returning the encrypted values for now\n    function getEncryptedAnswer(uint _questionId, address _participant) public view returns (string memory, string memory) {\n        require(_questionId < questions.length, \"Invalid question ID\");\n        string memory participantAnswer = answers[_participant][_questionId];\n        string memory correctAnswer = questions[_questionId].encryptedCorrectAnswer;\n        return (correctAnswer, participantAnswer);\n    }\n}\n",
  "sourcePath": "/home/martino/WebstormProjects/espl-gr2/contracts/Quiz.sol",
  "compiler": {
    "name": "solc",
    "version": "0.8.17+commit.8df45f5f.Emscripten.clang"
  },
  "schemaVersion": "3.4.14",
  "updatedAt": "2023-05-26T13:08:03.201Z",
  "networkType": "ethereum",
  "devdoc": {
    "kind": "dev",
    "methods": {},
    "version": 1
  },
  "userdoc": {
    "kind": "user",
    "methods": {},
    "version": 1
  }
}